:020000040000FA
:06000000020B7C02026409
:03002B0002093691
:030033000206D7EB
:030053000201990E
:03006B000206B1D9
:100083000201F8010000000000F8FF07FFFF000075
:10009300070400000003000147726F757000FF043E
:1000A30000100502640A2FAC092FAC09C0C1C2C3FA
:1000B300C4C5C6C7C8C9CACBCCCDCECF5A6967425F
:1000C3006565416C6C69616E636530390100FFFFE2
:1000D300F2E0A161000000000001C483BC0CC20C6B
:1000E300CE0CC80C0020FD000206FFFF1E015015B8
:1000F30000004415000000000000000000000000A4
:1001030000000000000010202020202020202020BC
:1001130020202020202020010104010001010304EC
:100123008301C283010400002418000000E80300D7
:1001330000FFFF9E180188130000E803000064001D
:100143006400B801A0BB0D00A0BB0D0002020207B2
:10015300040101051E02051E020A0A010101080924
:10016300080103B80B02803E0102FEFFE8030A0503
:100173000001FFFF010A011401E00105030101FF72
:100183000F10FEFF292C00000000FD2A00000000D4
:10019300FF000000FF00C0E074F112047BA2AFE493
:1001A30033F509D2AF85A708AFA1EF5508FE741048
:1001B3005E6006120EA875A1EF74085E6008120E49
:1001C300AE75A1F78024EFA2E092F0E508A2E082E9
:1001D300F05017906198E0F89004BAE0C398A2D267
:1001E30065D0335002E8F075A1FEE509A2E092AFB5
:1001F3007F020204DAC0E074F212047BA2AFE4339C
:10020300FED2AF9061A4E0F8759B00E591585408C5
:1002130060087591F7120EFC8023E5915854106025
:10022300087591EF120F028014E591A2E092F0E8B5
:10023300A2E082F05007E0C2E0F012104C9061A3FC
:10024300E0F8E5E9585404600E12102275E9FB90BA
:100253006193E0A2E640F2EEA2E092AF7F010204D6
:10026300DAC0E074F212047BA2AFE433FED2AF90A3
:1002730061A5E0F8E5BF585404600675BFFB121092
:100283006480D4C3E498F8E499F91202C78026C3C2
:10029300E49AFAE49BFBE920E7E91202C7E498F841
:1002A300E499F922C3E498F8E499F91202C7E498AF
:1002B300F8E499F9C3E49AFAE49BFB22EB20E7CF35
:1002C300E920E7E0B90010BB0008E88AF084F8AA47
:1002D300F022E4FBC8FA22EB70227B10C833C8C9B2
:1002E30033C9335007C39AC3DBF280069A50012AFD
:1002F300DBEAC833F4C8C933F4C9FA2275F008E459
:10030300C833C8C933C933C99AC99B5004C92AC958
:100313003BD5F0ECFBC833F4C8E4C9FA220808085B
:10032300EAC0E0EBC0E086F0E7A4FA180986F0E73C
:10033300A42AFA180986F0E7A42AFA180986F0E72E
:10034300A42AFA1986F0E7A4FBE5F02AFA1908862D
:10035300F0E7A42BFBE5F03AFA190886F0E7A42BA3
:10036300FBE5F03AFA18180986F0E7A4C5F02BFB71
:10037300E43AFA1908E7C5F0C6A426F6E5F03BFB14
:10038300E43AFA1886F0E7A4F6E5F00826F6E43B2B
:1003930008F6E43A08F6D0E0FBD0E0FA22E4CFC056
:1003A300E0E4CEC0E0E4CDC0E0E4CCC0E075F020F2
:1003B300E626F608E633F608E633F608E633F618DB
:1003C3001818EC33FCED33FDEE33FEEF33FFC3ECD3
:1003D3009709ED9709EE9709EF97191919400FFF40
:1003E300EC97FC09ED97FD09EE97FE191906D5F078
:1003F300BFECF709EDF709EEF709EFF7191919D073
:10040300E0FCD0E0FDD0E0FED0E0FF222518C5825D
:10041300C0E0E51934FFC583C0E0E518C395822425
:10042300F810AF088583198582188008858319859C
:100433008218D2AFCEF0A3E520F0A37808E608F047
:10044300A3DEFAEFF0A3E58124FAF8E608F0A3E6C9
:1004530008F0A3E608F0A30808E608F0A3E608F00E
:10046300A315811581D0E0FED0E0F8158115811523
:1004730081E8C0E0EEC0E022C0D02518C582C0E00C
:10048300E51934FFC583C0E0E518C3958224F31052
:10049300AF0885831985821880088583198582189A
:1004A300D2AFC8F0A3E9F0A3EAF0A3EBF0A3790875
:1004B300E709F0A3D8FAECF0A3EDF0A3EEF0A3EF75
:1004C300F0A3D0E0F0A3D0E0F0A3D0E0F0A3E520C8
:1004D300F0A3E5F0F0A322851983851882E0C0E03C
:1004E300A3E0F9A3E0FAA3E0FBA37808E0F608A3EE
:1004F300DFFAE0FCA3E0FDA3E0FEA3E0FFA3E0C07E
:10050300E0A3E0C0E0A3E0F5D0A3E0F520A3E0A3DF
:10051300F5F010AF08858319858218800885831943
:10052300858218D2AFD082D083D0E0F8D0E03212E7
:100533000BF6B90003020571E490040178B579184C
:100543008002F0A3D8FCD9FA7AB57B1B9000867899
:100553001479028015E493A3AD82AE838A828B83E0
:10056300F0A3AA82AB838D828E83D8E9D9E7758203
:10057300577583FD74041208A975828875832874DE
:10058300001208A90075F0108E1A8F1B85821F8533
:10059300831E851882851983E0CEA3E0CF851F8251
:1005A300851E83EBC9EAC8EDCBECCAC3E833C8E9BF
:1005B30033C9EA33CAEB33CBC3EA9EF51DEB9FF590
:1005C3001CB35004AB1CAA1DEC33CCED33CDD5F0DA
:1005D300DAAE1AAF1B22D083D082ECC0E0EDC0E0CC
:1005E300E493A3FCE493A3FDED4C600D1206F5EC3C
:1005F30024FFFCED34FFFD80EFE493A3FCE493A31D
:10060300FDED4C600D120792EC24FFFCED34FFFD71
:1006130080EFD0E0FDD0E0FCE493A3C0E0E493C01E
:10062300E022D083D082E9C0E0E493A3C386F0C57F
:10063300F095F0F908E493A386F0C5F095F0700BFC
:10064300E493A3C3994005E9048002A3E475F0028F
:10065300A42582F582E5F03583F583D0E0F9E493B0
:10066300A3C0E0E493C0E022851983851882E0A348
:10067300FEE0A3F5207808E0A3F608DFFAE0A3FF85
:10068300E0A3C0E0E0A3C0E0E0A3C0E0E0A3C0E0DB
:10069300E0A3C0E010AF0885821885831980088520
:1006A3008218858319D2AFD083D0820208AFC0E00D
:1006B30074F212047BA2AFE433FED2AFE589A2E168
:1006C3005003120DBE758900C2C5EEA2E092AF7F42
:1006D300010204DAC0E074F212047BA2AFE433FE39
:1006E300D2AFE58BA2E05003120DBE758B00C2E8BA
:1006F30080D8C0E0C3E49396087401939618400F22
:10070300E49366700808740193661870007019A367
:10071300A3C3E49396087401939618A3A3400DD042
:10072300E0D0E0D0E0020615A3A3A3A3A3A3D0E0E7
:10073300227404800474028000CCC0E0EDC0E0E5C4
:1007430018C39CCCAD1950011D10AF068C188D1920
:1007530080068C188D19D2AF12082BD0E0FDD0E0A3
:10076300FC2274028000CCC0E0EDC0E0E518C39C1D
:10077300CCAD1950011D10AF068C188D1980068C55
:10078300188D19D2AF120809D0E0FDD0E0FC22C0C9
:10079300E0C0F088F0E4936670080874019366186B
:1007A3007000A8F0A3A3700BD0F0D0E0D0E0D0E0AD
:1007B300020615A3A3D0F0D0E022D083D082CCC010
:1007C300E0E493A3600612084C1470FAE493A36068
:1007D300061209C91470FAD0E0FCE493A3C0E0E464
:1007E30093C0E022A2E792D65002F40430F70663E6
:1007F300F0FF05F0B3400384800384F40430D6058E
:1008030063F0FF05F022CAC0E0E493A3C582CCC520
:1008130082C583CDC583F0A3C582CCC582C583CDF4
:10082300C583DAE5D0E0CA22CAC0E0E0A3C582CC22
:10083300C582C583CDC583F0A3C582CCC582C583DC
:10084300CDC583DAE6D0E0CA22C0E0E493A3D39C0B
:100853005010E493A3C39C400AD0E0D0E0D0E00260
:1008630007DAA3A3A3D0E0227009080808226016C0
:10087300181818C6C333C608C633C608C633C60815
:10088300C633C6D5E0EA22C008C3E096F50808A33C
:10089300E096420808A3E096420808A3E0964508BC
:1008A3007001D3D00822C09FF59FE473D09F22D05C
:1008B30083D082C09FE493C0E0740193C0E07402CC
:1008C30093F59F22C5822518C582C583351910AFBC
:1008D30007F5198582188007F519858218D2AFC5E7
:1008E30083227404800A74038006740280027401F4
:1008F300C0E0F404120900D0E0120BB9222518F568
:100903008210AF08F518400C15198008F51840023D
:100913001519D2AF8519832200C0D0251810AF084E
:10092300F518500C05198008F51850020519D2AFB7
:10093300D0D022C0E0C0D0E8C0E0A8A8D2AFC2C7E0
:10094300E8A2E792AFD0E0F8D0D0D0E032BB01020A
:10095300E722C082C08389828A83BB0003E08002CE
:10096300E493D083D082226016080808C6C313C656
:1009730018C613C618C613C618C613C6D5E0EA228E
:100983002518F8E43519F9222518FAE43519FB225C
:100993002518FCE43519FD22C3E0C696F608A3E04A
:1009A300C696F608A3E0C696F608A3E0C696F62216
:1009B300251810AF08F518400C15198008F51840D4
:1009C300021519D2AF22C0E0E493A36C7009D0E002
:1009D300D0E0D0E00207DAA3A3D0E022E7667010EC
:1009E3000809E766700A0809E76670040809E766FC
:1009F30022E066701008A3E066700A08A3E0667040
:100A03000408A3E06622C3E09608A3E09608A3E0E7
:100A13009608A3E096A2D265D03322C3E096F008ED
:100A2300A3E096F008A3E096F008A3E096F022C3B3
:100A3300E4939608740193960874029396087403DA
:100A4300939622C3E697F60809E697F60809E69710
:100A5300F60809E697F622E627F60809E637F608C8
:100A630009E637F60809E637F622E026F608A3E09A
:100A730036F608A3E036F608A3E036F622E493F64A
:100A830008740193F608740293F608740393F6222C
:100A9300E026F008A3E036F008A3E036F008A3E070
:100AA30036F022E056F008A3E056F008A3E056F033
:100AB30008A3E056F022E046F608A3E046F608A3B2
:100AC300E046F608A3E046F622E647F60809E647BD
:100AD300F60809E647F60809E647F622700422609D
:100AE3000D18C6C333C608C633C6D5E0F41822E6CC
:100AF30057F60809E657F60809E657F60809E657D0
:100B0300F622E056F608A3E056F608A3E056F608E8
:100B1300A3E056F622E046F008A3E046F008A3E07F
:100B230046F008A3E046F022E4C396F608E496F6FE
:100B330008E496F608E496F622600D08C6A2E713C9
:100B4300C618C613C6D5E0F322C6F4C608C6F4C653
:100B530008C6F4C608C6F4C622C3E09608A3E09606
:100B630008A3E09608A3E09622C3E7960809E79650
:100B73000809E7960809E7962275D00075813F7545
:100B8300180175190400020532E6F008A3E6F0081F
:100B9300A3E6F008A3E6F022600C08C6C313C61848
:100BA300C613C6D5E0F422E0F608A3E0F608A3E0F6
:100BB300F608A3E0F622CAC0E0E6F0A308DAFAD00A
:100BC300E0FA22E8F0A3E9F0A3EAF0A3EBF022E0D5
:100BD300F8A3E0F9A3E0FAA3E0FB22EAF0A3EBF029
:100BE300A3ECF0A3EDF022E0FAA3E0FBA3E0FCA367
:100BF300E0FD22E5C754F84401F5C7790122251821
:100C0300F582E43519F58322C2AF75D69F02000041
:100C1300221208B291E0051208B2C4E0051208B22C
:100C2300F2E0051208B20CE3051208B228E305123C
:100C330008B26DE3051208B2F2E3051208B23EE40E
:100C4300051208B2CEE4051208B2A6E5051208B2F1
:100C5300F7E5051208B25CE6051208B2D9E60512FB
:100C630008B20FE7051208B25AE7051208B280E787
:100C7300051208B210E8051208B2A7E8051208B277
:100C8300F3E8051208B224E9051208B25BE905127C
:100C930008B2ECEA051208B2B6EB051208B290EC02
:100CA300051208B2A8C8041208B2DBC8041208B2BD
:100CB30023C9041208B22FCB041208B27FCD041249
:100CC30008B2B2CD041208B281D0041208B218D30C
:100CD300041208B2A3D3041208B21FD7041208B235
:100CE300EBD7041208B25CD9041208B2DED904129D
:100CF30008B2AFDA041208B2ECDC041208B281DDE8
:100D0300041208B263DF041208B272E2041208B2DA
:100D130075E2041208B288E2041208B2D5E20412A2
:100D230008B207C0051208B274C4051208B2D8C4C9
:100D3300051208B2F9C5051208B2C1C9051208B2F5
:100D43003ECD051208B218CF051208B266CF0512C0
:100D530008B221D1051208B25CD5061208B26DD5CE
:100D6300061208B20BD6061208B223D6061208B230
:100D7300F4FF041208B29BD8061208B2D1D60612A9
:100D830008B2E1D6061208B2F9D6061208B261D744
:100D9300061208B25AD3061208B2DDD3061208B2FD
:100DA30043D4061208B246FE011208B265FE0112D0
:100DB30008B2D2FE011208B217FF011208B270FF87
:100DC300011208B2FFA6061208B214A7061208B24F
:100DD3001FA8061208B250A8061208B26AA8061283
:100DE30008B2E0A8061208B2C5A9061208B239AAC9
:100DF300061208B253AA061208B26AAA061208B269
:100E030078AA061208B290AA061208B2A5AA061278
:100E130008B2CAAA061208B21AAB061208B254BA2A
:100E2300061208B262BA061208B2DBBA061208B298
:100E3300AFBB061208B281BD061208B2C7FF021289
:100E430008B2679D061208B2939D061208B204A069
:100E5300061208B244A0061208B284A0061208B211
:100E630098A0061208B2B1A0061208B2A2A10612F7
:100E730008B247A2061208B25BA2061208B28CCFD0
:100E8300061208B2B0CF061208B2C9CF061208B2D2
:100E9300FBCF061208B22BD0061208B258D00612A6
:100EA30008B2BAD0061208B2C9D0061208B2D3D01B
:100EB300061208B2E0D0061208B2C3C3061208B283
:100EC300E3C3061208B222C4061208B23DC40612D6
:100ED30008B25CC4061208B2C2C4061208B2CBC47C
:100EE300061208B228C5061208B237C5061208B2A0
:100EF3005BC5061208B21CC6061208B229C6061242
:100F030008B23AC6061208B264D7061208B27CD7F2
:100F1300061208B2A8D7061208B2B1A2061208B286
:100F23000BA4061208B218A4061208B22BA40612C8
:100F330008B240A4061208B255A4061208B268A467
:100F4300061208B2DCA4061208B241A5061208B2C2
:100F5300E3A5061208B2A7A6061208B2B7A60612A0
:100F630008B2C6A6061208B238D6061208B25CD674
:100F7300061208B284D6061208B2ACD6061208B21C
:100F8300EBC8061208B212C9061208B230C906121B
:100F930008B2A3C9061208B2F0C0061208B209C10A
:100FA300061208B215C1061208B229C1061208B208
:100FB30047C1061208B251C1061208B25BC106123C
:100FC30008B26EC1061208B2F4C1061208B269C2B1
:100FD300061208B298C2061208B2E6C2061208B296
:100FE30035C3061208B250C3061208B25AC306121A
:100FF30008B26BC3061208B2AEC3061208B28BFF67
:10100300051208B20694061208B23094061208B20A
:101013004D94061208B26094061208B27694061232
:1010230008B2D494061208B20C95061208B20099BD
:10103300061208B2459A061208B2789A061208B246
:10104300DB9A061208B23B9C061208B2639C061296
:1010530008B2789C061208B2889C061208B2CC9C8F
:10106300061208B2279D061208B2379D061208B26F
:101073002AD2061208B244D2061208B26CD2061261
:1010830008B285D2061208B2A9D2061208B2C7D294
:10109300061208B2DED2061208B20CD3061208B248
:1010A30027D3061208B2ABD7061208B2CFB6061280
:1010B30008B2DFB6061208B2E4B7061208B216B8D1
:1010C300061208B246B8061208B269B8061208B288
:1010D30080B8061208B2BAB8061208B21FB90612CF
:1010E30008B261B9061208B2A0B9061208B2D1B9A2
:1010F300061208B2FCB9061208B2F5FF031208B2D1
:10110300F8FF031208B2FBFF031208B268C6061207
:1011130008B288C6061208B29CC7061208B2BDC838
:10112300061208B24D7E001208B2837E001208B286
:10113300997E001208B2DB7E001208B2EB7E001229
:1011430008B22F7F001208B2C97F001208B2D37F02
:10115300001208B2398A061208B2438A061208B28C
:101163006E8A061208B2B78A061208B2208B0612DC
:1011730008B23D8B061208B2568B061208B2F88BE2
:10118300061208B2778E061208B2808E061208B2D3
:10119300C58E061208B2EE8E061208B2FB8E061238
:1011A30008B26C8F061208B2F78F061208B2459088
:1011B300061208B28390061208B2E890061208B22B
:1011C3000B91061208B28291061208B2D991061247
:1011D30008B21492061208B24992061208B25B9240
:1011E300061208B26D92061208B28C92061208B269
:1011F3009592061208B25093061208B29C930612F7
:1012030008B2DA93061208B2EAD0061208B23CCB4F
:10121300061208B272CB061208B2BACB061208B293
:1012230013CD061208B24CAC051208B270AD05120C
:1012330008B2AAAD051208B254AF051208B27EAFC8
:10124300051208B2F3B1051208B233B2051208B29F
:10125300C9B3051208B266B4051208B2B8B40512D0
:1012630008B25BB5051208B293B5051208B2D5B53D
:10127300051208B244B7051208B292B8051208B2B3
:10128300C3BA051208B2F1BA051208B218BB0512A7
:1012930008B221BB051208B278BB051208B20ABC1A
:1012A300051208B237BF051208B2BABF051208B259
:1012B3009BFF031208B2D6FF051208B2ECFF05121A
:1012C30008B24FAB061208B265AB061208B209ACFE
:1012D300061208B248AC061208B265AC061208B290
:1012E30096AC061208B2E3AC061208B216AD0612AB
:1012F30008B251AD061208B246AF061208B25CD46A
:10130300061208B2BBD4061208B2F9D4061208B208
:101313003AD5061208B20080041208B20C800412F7
:1013230008B25082041208B25A82041208B2F08240
:10133300041208B22C83041208B2E083041208B228
:10134300F383041208B25484041208B2C084041252
:1013530008B22A85041208B26285041208B2E48531
:10136300041208B28487041208B25389041208B223
:101373008F8A041208B2028C041208B2A58C0412DC
:1013830008B26C91041208B26192041208B2F69288
:10139300041208B21B93041208B2B793041208B2E2
:1013A300CC93041208B2F093041208B261940412AD
:1013B30008B27E94041208B2A894041208B23E96AE
:1013C300041208B25F96041208B20597041208B219
:1013D3004C97041208B2B597041208B23698041257
:1013E30008B29A98041208B2F698041208B29A99AD
:1013F300041208B20D9A041208B2419A041208B2F8
:10140300A49A041208B2019C041208B2799D041232
:1014130008B2269E041208B28BA0041208B200A1DF
:10142300041208B22AA1041208B26AA3041208B271
:10143300E6A5041208B2E5A6041208B275E2021288
:1014430008B204E3021208B27AE3021208B259E4C2
:10145300021208B254E5021208B2D1E5021208B230
:101463000FE7021208B2AAE7021208B281E90212D8
:1014730008B270EA021208B28DEA021208B2B0EBA7
:10148300021208B2F1EC021208B293ED021208B292
:10149300C5F0021208B2C1F2021208B24BF30212F3
:1014A30008B2A5F3021208B2F3F3021208B26EF403
:1014B300021208B2EBF4021208B22CF5021208B2BF
:1014C300AAFB021208B2FBFD021208B2D2FE0212FC
:1014D30008B2F4D1051208B27ED2051208B2F5D2D1
:1014E300051208B205D6051208B288D7051208B24C
:1014F300B8D9051208B2FDDA051208B258DD051293
:1015030008B286DD051208B2C4DD051208B23DDE5D
:10151300051208B2E3DE051208B2F4DE051208B2C2
:10152300FBDE051208B28EDF051208B2E0DF0512FA
:1015330008B272CD061208B2BECD061208B271CE41
:10154300061208B291CE061208B2D3CE061208B222
:10155300F8CE061208B201CF061208B252D806120C
:1015630008B251E3041208B280E3041208B2FCE3A8
:10157300041208B24AE5041208B230E6041208B2B3
:10158300A9E7041208B2CEE7041208B220E8041255
:1015930008B2A2E8041208B2E9E8041208B2FCE8AF
:1015A300041208B253E9041208B219EA041208B289
:1015B30085EA041208B2AFEA041208B2F8EA041288
:1015C30008B27DEC041208B256ED041208B29FEE85
:1015D300041208B272EF041208B2FAEF041208B24E
:1015E3003DF0041208B257F0041208B29EF0041240
:1015F30008B2BEF0041208B279F1041208B29CF2E8
:10160300041208B2F6F2041208B23AF3041208B252
:1016130036F4041208B2B2F6041208B2D1F6041278
:1016230008B246F7041208B26BF7041208B2E8F7DF
:10163300041208B2AEF8041208B2EBF8041208B2AE
:1016430064F9041208B258FA041208B25BFA0412DD
:1016530008B265FA041208B26FFA041208B282FAE9
:10166300041208B2FEFA041208B234FB041208B2E0
:1016730047FB041208B273FB041208B29AFB04126C
:1016830008B2BEFB041208B2F9FB041208B26BFCE9
:10169300041208B293FC041208B29DFC041208B2AF
:1016A300D9FC041208B20EFD041208B224FD041280
:1016B30008B2AFFF011208B2C7FF011208B2F1FF6F
:1016C300041208B24DF8051208B29CF8051208B2CC
:1016D3003CFA051208B2F7FB051208B239FC0512F1
:1016E30008B258FD051208B262FE051208B284FE64
:1016F300051208B2CEFE051208B24FFF051208B25A
:1017030016AB041208B239AB041208B2A4AC04122B
:1017130008B2EDAC041208B247AD041208B2ADAD85
:10172300041208B2B0AD041208B2F3AD041208B249
:1017330077AE041208B202AF041208B205AF041266
:1017430008B297AF041208B2DAAF041208B270B449
:10175300041208B202B6041208B249B6041208B25F
:10176300C2B9041208B2F9BA041208B2D6BB041201
:1017730008B264BC041208B28BBC041208B210BFD6
:10178300041208B2BFC0041208B26DC1041208B239
:10179300FAC1041208B2E6C2041208B29DC40412CC
:1017A30008B2ACC5041208B213C7041208B260C76A
:1017B300041208B2F5C7041208B2596A001208B23B
:1017C300F96A001208B2636B001208B27C6B001254
:1017D30008B2FE6B001208B2546C001208B2A16C7E
:1017E300001208B2006D001208B20B6E001208B2AC
:1017F3002071001208B25272001208B2D3720012A2
:1018030008B2D274001208B27F75001208B22576AE
:10181300001208B20A77001208B2D578001208B293
:101823003D7A001208B24D7B001208B2EF7B001222
:1018330008B20E7D001208B23BD9031208B2AFD929
:10184300031208B2F7D9031208B235DA031208B249
:1018530084DA031208B2CEDA031208B206DB0312EB
:1018630008B284DB031208B2DEDB031208B23ADDEE
:10187300031208B2C9DD031208B2E0DE031208B294
:1018830008DF031208B24EE0031208B25FE003124E
:1018930008B277E0031208B281E1031208B24BE207
:1018A300031208B258E3031208B27CE3031208B22E
:1018B30093E3031208B2B4E3031208B2D6E30312AC
:1018C30008B2F3E3031208B2CFE4031208B227E528
:1018D300031208B2B9E7031208B208E8031208B208
:1018E30027E8031208B206E9031208B23CE903121F
:1018F30008B254EA031208B2D1EA031208B23EEB6B
:10190300031208B27AEB031208B2E3EB031208B234
:101913009DEC031208B25BEE031208B25CEF0312F4
:1019230008B2E1F0031208B2CCF2031208B22FF5A9
:10193300031208B2D5F6031208B2A3F7031208B2D2
:1019430009F8031208B220F8031208B210F90312BF
:1019530008B2FCF9031208B269FA031208B2B6BD61
:10196300061208B25BBF061208B218C0061208B20C
:101973007CC0061208B253AF061208B271AF06124A
:1019830008B2CF83061208B2DBAF061208B201B069
:10199300061208B219B0061208B231B0061208B224
:1019A30094B0061208B2D6B0061208B2F8B1061205
:1019B30008B201B2061208B20AB2061208B213B292
:1019C300061208B21DB2061208B206FB031208B2D1
:1019D30021FF031208B22FFF031208B234FF0312D0
:1019E30008B27EFE041208B226D8061208B2EFD758
:1019F300061208B2D67F001208B215E0051208B22B
:101A03000080031208B23280031208B29E800312D0
:101A130008B23981031208B2D881031208B21D82B9
:101A2300031208B23F82031208B25882031208B2AB
:101A33007E82031208B2A082031208B2DE8203126E
:101A430008B22283031208B24483031208B2A683A6
:101A5300031208B26D84031208B22485031208B27C
:101A63009685031208B26886031208B2B28603127F
:101A730008B20587031208B26B87031208B2A58761
:101A8300031208B2F787031208B21388031208B2CD
:101A93003E88031208B2458A031208B2998B0312D7
:101AA30008B2BB8B031208B2EF8B031208B2108C7F
:101AB300031208B21F8C031208B22A8C031208B255
:101AC300DA8C031208B2438D031208B2F08D0312AD
:101AD30008B2288E031208B2EE8E031208B2FB8FEF
:101AE300031208B24590031208B2D490031208B24D
:101AF3003891031208B27391031208B2DF930312F1
:101B030008B23395031208B26C98031208B23999DC
:101B1300031208B2C799031208B2F099031208B26C
:101B2300629A031208B2F69A031208B2549B031284
:101B330008B2469C031208B2689C031208B2C49D03
:101B4300031208B2DD9D031208B2F09D031208B21E
:101B53005F9E031208B26B9F031208B2789F0312B1
:101B630008B2819F031208B259A1031208B27FA2DF
:101B7300031208B28FA2031208B291A3031208B290
:101B830008A4031208B237A4031208B23DA5031236
:101B930008B283A5031208B24FA7031208B227ABFA
:101BA300031208B231AB031208B245AB031208B2F9
:101BB3004FAB031208B259AB031208B263AB031263
:101BC30008B27CAB031208B286AB031208B2FAABBD
:101BD300031208B205AC031208B22AAC031208B20E
:101BE30035AC031208B283AC031208B28DAC0312F6
:101BF30008B298AC031208B2BCAC031208B2E0AC52
:101C0300031208B23CAD031208B282AD031208B24C
:101C13009FAD031208B21CAE031208B253AE0312F7
:101C230008B292AE031208B2DFAE031208B261AF7C
:101C3300031208B2FAAF031208B2CAB1031208B210
:101C430028B2031208B244B3031208B26AB30312F0
:101C530008B2A9B4031208B2CFB7031208B210BA7C
:101C6300031208B2ECBB031208B282BC031208B21F
:101C7300A9BE031208B255BF031208B28ABF0312EA
:101C830008B2EFBF031208B2F9BF031208B223C2AE
:101C9300031208B24AC3031208B28AC3031208B27A
:101CA30030C4031208B2C1C5031208B24AC70312F3
:101CB30008B26AC7031208B2C3C7031208B2C5C881
:101CC300031208B20FC9031208B25FC9031208B2A4
:101CD30049CA031208B2BECA031208B2D8CB031210
:101CE30008B253CC031208B258CD031208B203D082
:101CF300031208B222D0031208B283D1031208B22E
:101D030045D3031208B299D3031208B251D4031274
:101D130008B200D5031208B256D5031208B20CD686
:101D2300031208B2A1D6031208B20DD7031208B2E8
:101D330047D7031208B278D7031208B2D4D80312D4
:101D430008B20080021208B23280021208B269801F
:101D5300021208B25282021208B23583021208B28A
:101D63008D83021208B2C884021208B214850212CB
:101D730008B23C88021208B29E8B021208B2EB8CA6
:101D8300021208B2818D021208B28D8D021208B2BE
:101D9300BF8D021208B2418F021208B24F90021295
:101DA30008B27990021208B2D090021208B22991B7
:101DB300021208B29591021208B2AC93021208B251
:101DC3003B95021208B20596021208B2439702121B
:101DD30008B27399021208B2439C021208B2509CD3
:101DE300021208B2D79C021208B27F9D021208B2F7
:101DF300C29D021208B20B9E021208B25F9E02122B
:101E030008B2C49E021208B22C9F021208B2499F64
:101E1300021208B2799F021208B2AE9F021208B2F0
:101E23007EA0021208B227A1021208B2ABA30212CB
:101E330008B2CBA4021208B2B4A5021208B236A6A5
:101E4300021208B258AA021208B295AA021208B2E4
:101E5300EDAA021208B220AB021208B2A1AB021221
:101E630008B2EEAB021208B279AC021208B2CBACE4
:101E7300021208B2A2AD021208B25BAE021208B29D
:101E8300F6AE021208B20FB2021208B22FB3021258
:101E930008B2E0B6021208B2FEB7021208B201B8E5
:101EA300021208B230B8021208B236BA021208B2ED
:101EB3000FBB021208B244BB021208B24CBC02129E
:101EC30008B202BD021208B2A3BE021208B2C8BE13
:101ED300021208B207BF021208B279BF021208B297
:101EE3005DC0021208B22AC1021208B260C3021214
:101EF30008B2D1C3021208B211C4021208B272C4EA
:101F0300021208B235C8021208B224C9021208B27A
:101F13000BCA021208B283CA021208B245CB0212DC
:101F230008B243CD021208B25BCD021208B26FCDE4
:101F3300021208B2A7CD021208B2D5CD021208B21E
:101F43005CCF021208B267D0021208B2B9D00212F3
:101F530008B221D1021208B2D3D1021208B203D2BD
:101F6300021208B2E7D2021208B298D3021208B2E0
:101F730087D5021208B2BCD5021208B224D60212C7
:101F830008B253D7021208B205D8021208B236D8E3
:101F9300021208B24ED8021208B2DDD8021208B2F9
:101FA30091DB021208B269DD021208B285DD02126A
:101FB30008B2A1DD021208B26FDE021208B253E2C8
:101FC300021208B216B3061208B256B3061208B2CA
:101FD30009B5061208B218B5061208B20080051238
:101FE30008B21785051208B26285051208B2B287D6
:101FF300051208B24689051208B2D489051208B23F
:10200300358C051208B23A8E051208B28E8E05126F
:1020130008B29D90051208B2CE90051208B20E9137
:10202300051208B22991051208B28491051208B26B
:10203300A691051208B2AD91051208B2C591051219
:1020430008B2A592051208B28493051208B2CA8396
:10205300011208B20284011208B2E088011208B228
:102063002689011208B2738A011208B2DE8A0112AC
:1020730008B2678C011208B2778F011208B29290EE
:10208300011208B2A49A011208B2379B011208B2D6
:10209300899E011208B2859F011208B2E09F0112C6
:1020A30008B22AA1011208B218A2011208B2B4A4FC
:1020B300011208B228A6011208B2ABA6011208B297
:1020C300AEA6011208B223A7011208B22DA701126E
:1020D30008B23AA7011208B265A7011208B215A8FF
:1020E300011208B20EA9011208B2B9A9011208B26D
:1020F300D7A9011208B2F0A9011208B219AA011254
:1021030008B23BAA011208B290AC011208B255AD55
:10211300011208B29AAD011208B219AE011208B247
:10212300C5AE011208B2F7AE011208B24BAF0112ED
:1021330008B286AF011208B2CDAF011208B21DB0CA
:10214300011208B222B0011208B276B0011208B22D
:10215300A2B0011208B28BB1011208B2DCB10112B4
:1021630008B23CB2011208B296B2011208B231B3FE
:10217300011208B270B6011208B282B7011208B296
:10218300FCB8011208B20CBC011208B2AABC0112BD
:1021930008B2A0BF011208B25FC0011208B2A3C007
:1021A300011208B24EC2011208B262C2011208B291
:1021B3006CC2011208B276C2011208B282C20112C5
:1021C30008B2A7C2011208B280C4011208B2D5C472
:1021D300011208B2DFC4011208B2E9C4011208B245
:1021E3005EC5011208B2ADC5011208B2BEC6011226
:1021F30008B20BC7011208B218C8011208B25CC8B2
:10220300011208B202C9011208B2F5C9011208B2DB
:10221300BBCA011208B2DECB011208B2FCCC011218
:1022230008B2E4CD011208B2FCCD011208B253CEBC
:10223300011208B25DCE011208B268CE011208B2D3
:1022430086CE011208B2CECE011208B230CF0112EF
:1022530008B257CF011208B269CF011208B204D0F5
:10226300011208B239D0011208B220D1011208B20A
:1022730065D1011208B24BD2011208B272D2011217
:1022830008B2F5D2011208B266D3011208B2EFD434
:10229300011208B21BD6011208B2DED6011208B22F
:1022A300A6D7011208B230D8011208B258D90112C8
:1022B30008B2FAD9011208B275DA011208B231DB99
:1022C300011208B27BDB011208B2D5DB011208B29E
:1022D300ADDC011208B2D0DC011208B283DD0112B9
:1022E30008B2A5DD011208B20EDE011208B224E025
:1022F300011208B21CE1011208B2E0E1011208B2B6
:1023030012E4011208B25CE4011208B2ACE4011257
:1023130008B210E5011208B272E5011208B2A0E595
:10232300011208B2C4E5011208B2F9E5011208B2BC
:102333002AE6011208B25DE6011208B2ADE6011207
:1023430008B200E7011208B225E8011208B2C5E994
:10235300011208B220EA011208B249EA011208B2D6
:10236300D6EA011208B244EB011208B252EB011291
:1023730008B276EB011208B2CBEB011208B2E6EB1E
:10238300011208B298EC011208B2D0EC011208B2A3
:1023930013ED011208B276ED011208B278EF0112C3
:1023A30008B2A2EF011208B299F0011208B2A3F128
:1023B300011208B253F2011208B231F3011208B24A
:1023C30069F3011208B28AF3011208B2CCF30112C5
:1023D30008B22EF4011208B238F4011208B248F41C
:1023E300011208B283F4011208B263F8011208B2B1
:1023F30050FA011208B236FC011208B2CDFC0112E8
:1024030008B26FFD011208B24A30001208B2F5306B
:10241300001208B2A331001208B2A932001208B2A6
:10242300C932001208B2F233001208B2AD350012FD
:1024330008B22036001208B2C436001208B2D037F0
:10244300001208B23B38001208B27738001208B203
:10245300BA38001208B2F538001208B23739001240
:1024630008B2CC39001208B2483A001208B2123B43
:10247300001208B2EF3B001208B2873C001208B208
:10248300A13C001208B2D13C001208B2023D001276
:1024930008B2C83D001208B2D83D001208B2273E68
:1024A300001208B2343E001208B23D3E001208B2D8
:1024B300BB3E001208B2173F001208B2623F00127F
:1024C30008B27D3F001208B2A83F001208B2C53F10
:1024D300001208B2D13F001208B26841001208B2DC
:1024E3008141001208B20642001208B219420012DA
:1024F30008B23842001208B2DC42001208B25D444E
:10250300001208B21046001208B2A646001208B222
:10251300A946001208B21947001208B23747001241
:1025230008B2CE47001208B21648001208B2194882
:10253300001208B2DF48001208B24C49001208B278
:102543007249001208B2FD49001208B21B4A001278
:1025530008B2614A001208B2154B001208B25F4B71
:10256300001208B28E4B001208B2EB4B001208B2F5
:10257300204C001208B24C4C001208B25A4C001204
:1025830008B2A74C001208B2174D001208B2604DF2
:10259300001208B2AC4D001208B2D84D001208B2B6
:1025A300E34D001208B2014E001208B2EC4E0012C5
:1025B30008B2F64E001208B2314F001208B2414F72
:1025C300001208B2954F001208B2A94F001208B2C8
:1025D300D850001208B2ED50001208B27B5100121D
:1025E30008B2C051001208B24C52001208B257523E
:1025F300001208B29953001208B2B453001208B281
:102603000054001208B26F54001208B2A85400120A
:1026130008B2C254001208B22255001208B2C155C2
:10262300001208B20C56001208B2DC58001208B2AD
:102633008E59001208B2FB59001208B23B5C00121B
:1026430008B2535C001208B2565C001208B2625C16
:10265300001208B2765C001208B27E5C001208B267
:10266300B15C001208B2B45D001208B2415E001200
:1026730008B2B15E001208B2335F001208B2F45F11
:10268300001208B21360001208B2B460001208B25C
:102693001161001208B21461001208B288610012BD
:1026A30008B2D762001208B2DD63001208B2686490
:1026B300001208B28365001208B24B66001208B21A
:1026C3007C66001208B29F66001208B2A866001268
:1026D30008B2D766001208B26767001208B21D6815
:1026E300001208B29268001208B23969001208B2E7
:1026F300AE69001208B2E569001208B2236A00123B
:1027030008B22A81061208B27580061208B2008048
:10271300061208B23BAC051208B20BAC051208B2A4
:1027230001AC051208B294AB051208B2E8A9051270
:1027330008B2A6A9051208B2D8A8051208B2C2A801
:10274300051208B283A8051208B2DDA7051208B264
:10275300CEA4051208B2A1A2051208B271A20512F5
:1027630008B215A2051208B2AFA1051208B26EA1F4
:10277300051208B2A0A0051208B23BA0051208B2C8
:10278300DF9F051208B2829F051208B2209E051230
:1027930008B2BD9D051208B2079D051208B2029D3D
:1027A300051208B2F389061208B2EB9C051208B2AF
:1027B300BB89061208B26489061208B2038806129E
:1027C30008B24587061208B2A886061208B23E86EA
:1027D300061208B2B69C051208B2D999051208B2BE
:1027E300D699051208B2BD99051208B223860612BE
:1027F30008B2B299051208B28E99051208B2D4979D
:10280300051208B25397051208B20F97051208B2C2
:102813008585061208B28496051208B27DD8061281
:1028230008B202F8051208B2A9F7051208B26BF74D
:10283300051208B23EF7051208B20AF7051208B2EC
:10284300A9F6051208B291F6051208B261F605124F
:1028530008B236F3051208B209F1051208B210EFF7
:10286300051208B296EE051208B245EE051208B23B
:10287300FFED051208B29984061208B269ED05123C
:1028830008B2B5AF0600000080FBE4738F000100BF
:10289300A81C87000100A61C350004006C1C250041
:1028A3000200701C26000200721C27000200741C28
:1028B300280001007E1C290001007F1C8400040005
:1028C3002B1986000100C31B2A000100801C2B006A
:1028D3000100811C2C000100861C2D000800391901
:1028E3002E000100871C2F000100881C300001000E
:1028F300891C310001008A1C320001004119330098
:1029030001004219340001008B1C360001004319F9
:10291300380001008C1C39000100851C8300020073
:10292300A41C630001004E1964000100821C6500B1
:102933000100831C6D0001004F197100080031195B
:1029430066000100A31C43000100941C4400020024
:10295300951C45000100971C46000200981C470087
:1029630008004619480001009A1C4B0001009B1CFB
:1029730004000100A71CA1000100AB1C37000100EB
:10298300AA1C88000100A91C3C00010044193D0059
:1029930001008D1C490002009C1C670001005019B6
:1029A3004D0002009E1C4E000100A01C4F000200BF
:1029B300A11C3E000100931C510001008F1C52001A
:1029C3000100901C53000100921C540001004519A2
:1029D3000000000000000001363601010001020181
:1029E30000010301000104010606050200000701BE
:1029F30000340801000F090401010D0100FF0E0856
:102A0300000017020000190100FF1A0100011B0159
:102A130000FE1C0100081D0200001F01000120012F
:102A23000001210200002301000F240200002601FF
:102A3300000127010008280200FF2A0100072B01DB
:102A430002402C0100002D0100012E0100012F0185
:102A530000FF30010B1D310800003A0100083B0163
:102A6300000F3C0100013D0100FF3E040000420451
:102A73000000460400004A0400004E040000520413
:102A83000000560400005A04000000000300200167
:102A9300C783000000002001C68300000400420138
:102AA300EF82000005004201ED80000006004201B4
:102AB3008D82000007003001C8830000100042032C
:102AC300381C000011003003F81700001200100337
:102AD300491C030000002103F9170000FDFF210139
:102AE300C0830300FDFF2101C08306000000100125
:102AF300EA170600FDFF2181C0830103710301036F
:102B03000103010301030103220302030103100371
:102B13000003000300030003000300030003420358
:102B23000003240306030003000304031203250325
:102B33002303250323030403040300030003000307
:102B4300440300030003230300036503210035034B
:102B530081030003050300030003000300032503AF
:102B630023030302710230016002110270020102A9
:102B7300020202028002100261023A004100630273
:102B8300730272026202430200021302380000025F
:102B93000002040212020002000200020002040208
:102BA3000402370037003C024402000239000002ED
:102BB3000002650200023502810200020502820260
:102BC30083020002010171010101010111010101EF
:102BD3003101010101018001100161013B00140079
:102BE30063017301720162014301000113010601D4
:102BF3003D01350004011201000100010001000143
:102C030004010401330133013C0144013201360064
:102C1300000100016501000135008101000105018A
:102C23008201830100010300710030016000110083
:102C33007000310220035004800010006100000086
:102C4300140063007300720062004300000013006D
:102C53000600000000000400120000000000000055
:102C6300000004000400370037003C024400000069
:102C73000000000000006500000035008100000036
:102C830005000000830000000304710402046004D3
:102C93001104700402040204010402041004610418
:102CA3000004140463047304720462044304000400
:102CB30013040604000400040404120400040004C2
:102CC30000040004510464000004000400044404EC
:102CD30000040004000400046504000435048104B6
:102CE3006400050400048304000421001000208113
:102CF300D41B210011004381000021001200208316
:102D0300D51B210013002083D61B21001400208330
:102D1300D71B2100150043813E04210016001A81B0
:102D2300D81B210017001A81DB1B21002000188308
:102D3300400421002100F183DE1B21002200F183E6
:102D4300EE1B2100FDFF2181FE1B36000100060062
:102D530000000F0000000000000000000000000061
:102D630003FFFF00000403FFFF0000FFFF0FF40158
:102D73000005C4040320000100000B000000000054
:102D830000000003010F000000000000000000002D
:102D93000000000000000000000000000000000030
:102DA3000000000000000000FA1324140014341380
:102DB30006142A14061436140C14341306142A1495
:102DC3001214341300000000181434130000000020
:102DD300000000001E143413000000000000000077
:102DE30000000000000000000000000000000000E0
:102DF30000000000000000000000000000000000D0
:102E030000000000130078171F007E171F8084172F
:102E13000000EA170100EA170200241702801E17B8
:102E230003002A17040030170480361705003C17E7
:102E33000600481731005A1733006017340066172D
:102E430036006C17FFFF00000A00000002000000BC
:102E53000400000008000000100000002000000033
:102E6300400000008000000000010000000200009C
:102E73000004000000080000001000000020000013
:102E830000400000018A2006BA2008B4200BD82095
:102E930010F41C02902005A8200796200C72200D28
:102EA3007E2064E41AFF000007ECFDFDFDECDCDC92
:102EB300CCBCACAC9C9C8C7C7C6C6C5C5C5C4C4CEF
:102EC3003C3C2C2C1C1C03EAF5E5D5D5C5B5A595D2
:102ED300958585757565655555454535352525159F
:102EE300150500160F00000B150B020002220F330D
:102EF30000000E0FD0D1D2D3D4D5D6D7D8D9DADBB0
:102F0300DCDDDEDF5A6967426565416C6C69616EC1
:102F130063653039C0C1C2C3C4C5C6C7C8C9CACB3B
:102F2300CCCDCECF00000000000000000000000068
:102F330000000000303016181920231A1C1E300020
:102F4300034D4C4651181A2505020001191618168F
:102F53001618230300303017181921301B1D1F309A
:102F6300003C40423A3F3F392F47300C0E020B04DE
:102F73000B0A0708000F0204020101010109020004
:102F8300BE040AE8030000E8030000010003007F19
:102F93000000000E000404080405030A0C100E08C8
:102FA300091E0C28FF03100209033C0C0508150039
:102FB3001EE4F0A3F0A3F0A322122FB4F022901A80
:102FC300B51245C012247422122FCF22E0F508E473
:102FD300F509F50AF50B22E824FBF582E934FFF540
:102FE3008322E82411F582E439F583E022F5831284
:102FF3002FF622E0F508A3E0F509221226F0740467
:1030030012091B7F0802066B7401F09004D2E0647E
:103013000F22740912091B7F0402066BEA2413FAB8
:10302300E43FFB12261EE922790512262A740622A2
:10303300A3A3E024F5C39413221226FC9004F212F6
:10304300657E7A147B0022C082C083901A947468D0
:10305300F0A37424F0A3747AF0A37424F0901A9864
:103063007450F0A37424F0A3744AF0A37424F0A35F
:103073007486F0A37424F0A3748CF0A37424F0A3D7
:103083007480F0A37424F0A37438F0A37424F09034
:103093001AA4745CF0A37424F0A37462F0A37424E0
:1030A300F0A37456F0A37424F0A37492F0A37424D1
:1030B300F0901AB5124F8F6009901AB51245BC12E1
:1030C3001220901AB21248D67408125C2BA3F09007
:1030D3001B5EF0901AB7F07C0BFDF97AB87B1A12DD
:1030E300116C7C0B7D0079007AC37B1A12116C0280
:1030F300473074F712040F74F71209B3EAFEEBFFBB
:1031030012318874051249F47403F012329F124984
:10311300D62430FCE43FFD8C82123180123194605E
:10312300081239AD74FFF0A3F0EE242EE43F1C1C0B
:10313300FD8C82F583A3E0C0E08A828B83124688EC
:10314300D0E012319488828983124EC32403F0EEB7
:103153001239B7120C017403F09004E712073874A4
:103163000212099312358112091BE9F5087007EE63
:10317300FAEFFB122504A90874090239C6F583E0A6
:103183008882898322EA12318D221250D23FF5833D
:1031930022125EAB1249E2E8F0A3E9126182E02257
:1031A30074F012040FEAFEEBFF8C0C8D0D890B12E9
:1031B300329FF5831249EA7410120C01E0F508A35B
:1031C300123182F0E824FFF582E9123593E508F025
:1031D300E824FEF582E9123593E50BF09004ECE068
:1031E300C0E0E824FDF582E9123593D0E0F09004C5
:1031F300EBE0C0E0E824FCF582E9123593D0E0F07F
:103203007412120C01122FF2122FDAE509F0E824DE
:10321300FAF8E934FFF98882F583E508F0EE24042F
:10322300FCE43FFD88088A828B83E0F50E8C828D57
:1032330083E0250EC39508125EAB124810850C82FD
:10324300850D83A3A3A3A3A3A3A3A3E0640370098E
:10325300EE1249C4F0A3E480031235981235A0742A
:1032630009F07508B875091A750A0078081208E993
:1032730012597512091B7508FF7509FF78081208A2
:10328300EDAC0CAD0D12358112091BE9F508700781
:10329300EEFAEFFB122504A908023006EA2402FA2B
:1032A300E43FFB8A8222C082C083901AD4E0C39495
:1032B30008400474078001E08A828B83F033333340
:1032C30054F8F902473074F012040F8A088B098905
:1032D3000A8C0E8D0F750C00A2AFE433F50BC2AF51
:1032E300901ACE80451233CB503D1233E564037000
:1032F30036E50824F9F508E50934FFF5098E828FD0
:1033030083A3A3E02405FCA3E03400FDAA08AB09D2
:10331300121310E50824FFF508E50934FFF50974D5
:1033230010250CF50C150A1237BA126933E50A6039
:1033330004EE4F70B0E50BA2E092AFA2AFE433F519
:103343000BC2AF901ACE803E124E9C8882F5831238
:103353004110850882850983F08A8289831233DCD0
:10336300A3A3E0C0E0E50824FFF582E50912359345
:10337300D0E0F0E50824FEF508E50934FFF509057A
:103383000C150A1237BA12360E60211233E56402A5
:1033930070F11233CBEE40B0124B0BA2E550E48533
:1033A3000E82850F837401F0E50A70D7E50BA2E066
:1033B30092AF850882850983E50CF0E50824FFFABE
:1033C300E50934FFFB0230061233D1A2E622EE24D4
:1033D30011F582E43FF583E0221233E022124EE13D
:1033E300A3228E828F83A3A312468C1255B8227414
:1033F300F012040F74F31209B37403120C01E9F011
:103403007402120C01EAF08B0B851882851983E490
:10341300F00412098B12241AE9F89004D1E029244C
:1034230037F508FA7B0012118A8A0C8B0DAE0CAFAC
:103433000DEA4F7003023578EA2402F50EE43FF5F6
:103443000FA808EA28F8E43BF9850E82850F83125A
:103453003F0C9004D1E0F9FAC3E49AFA95E0FB85B6
:103463000E82850F83E02AF50CA3E03BF50D900453
:10347300CF122FF2750A0078081208E9E9FC7D00E3
:10348300AA0CAB0D12494612091BAC18AD197401F5
:10349300120C01E0F9E50C24FFFAE50D34FFFB12F1
:1034A30024208A828B83E4F0E50BC454F0F9901B4B
:1034B3005FE0C4333354C0F89004CBE0A2E0E433BC
:1034C30013134849440FC0E0EA24FFF582EB123599
:1034D30093D0E0F0EA24FEF50CEB34FFF50D740312
:1034E300120C01E0F87402120C01E0C454F0488598
:1034F3000C82850D83F0A80C850E82850F83125BE9
:10350300F82AC3988E828F83A3A3A3A3F0850E8288
:10351300850F83E8F0A3E50DF01235981235A0E48A
:10352300F0740C120C01E4F07508C375091A7808DD
:103533001208E912597512091B851882851983E04F
:103543006009EE240E124B0D4408F012260CE9F923
:10355300E4F508F50978081208ED740612099312C8
:10356300358312091BE97006EEFAEFFB800BEEFAC6
:10357300EFFB1211907A007B00740D023003790384
:10358300EEFAEFFB122624740222EE24FFF582EFFB
:1035930034FFF58322EE12318DE4F0A322F01235CD
:1035A300A522EE1258983FF5832274F212040F8A73
:1035B3000C8B0DA2AFE433F50AC2AF750800750991
:1035C30000901ACE802C1237CA5024850C82850DA8
:1035D30083A3A31259888E828F83A3A31245BC129F
:1035E3002612E9600A1237C5C2E6F08E088F091267
:1035F30037BA12360E70CFE508450960061236A7B2
:10360300D2E6F0E50AA2E092AF800DE0FEA3E0FF70
:10361300EE4F22740212091B7F0602066B74F0122E
:10362300040F8A0E8B0F8C0C8D0D750A00A2AFE46C
:1036330033F50BC2AF7E007F00901ACE8010AE0828
:10364300AF0912369F124B0BD2E7F012459A12457F
:10365300AE60341236A7A2E750F18508828509834C
:10366300A3A3120738AC0CAD0DAA0EAB0F1226188C
:10367300740212091BE960D3EE4F60C2123A417023
:10368300061236B9D2E4F0E50BA2E092AFEE4F603A
:10369300061224FE750A01A90A0230061233D1D29A
:1036A300E4F0EE22E5081258B23509F583E022AAC8
:1036B30082AB831213108E828F83A3A312468CE0F6
:1036C3002274F212040F74FE1209B3750C00750D07
:1036D30000851882851983E4F0A3F0A2AF33F50ABD
:1036E300C2AF901ACE126933802BEE24FBF582EF22
:1036F30034FF122FF0780C1208ED1237A812091BB1
:10370300EEFCEFFDAA18AB191211AEAE08AF09908B
:103713001AD4E014F0EE4F602B1237CA501DEE247A
:103723000BF8E43FF98882F583E024FFF0A3E0344B
:10373300FFF088828983124F8F60AF8E0C8F0D123A
:1037430037BA80A1E50AA2E092AF901AD4E0602CC8
:103753009004D2E0640F6006901B5EE0701E7AACAA
:103763007B1A1226FC9083B31207347AAC7B1A12AD
:1037730047B812091B800574F0124699AA18AB19B1
:103783001211B48A088B09AE08AF09EA4F6013120D
:10379300242C1237C5A2E28E828F83A350D974E9F9
:1037A30080D7023616EEFCEFFD7ACE7B1A1211C0DB
:1037B3007402228E0A8F0BEE24FBF582EF34FFF5A1
:1037C3008322EE1233D2221233D1A2E72274F712EC
:1037D300040FEAFEEBFF12242C12468512288DE912
:1037E30064019004EE700AE02401F8A3E034008041
:1037F3000312460BF9124D0D124810901AD4E070C3
:103803001F9004D2E0640F70177AAC7B1A1226FC67
:103813009083B31207347AAC7B1A1247B812091B90
:10382300A8A8C2AF901AD4E004F0E8A2E78004E5A8
:1038330008A2E092AF024C1B74F712040FEAFEEBEE
:10384300FFEA123871F012242CEEFCEFFD7ACE7BE6
:103853001A1211BAA8A8C2AF901AD412415F9004E9
:10386300D2E0640F700579081225C4024C1B123391
:10387300D2C2E42274F712040F74EA1209B3EAFE07
:10388300EBFF9004CBE0602A8518828519837401CD
:10389300F0120C01E412392C120C011236B2C0E002
:1038A300740A120C01D0E0125C18740B120C011292
:1038B3004E7874160239C674F712040FEAFEEBFF52
:1038C30012240EE9F974DC69601E74DD69601974F1
:1038D300E469601474F369600F74DE69600A74DF6D
:1038E30069600574DB697007EEFAEFFB1225CA0203
:1038F3004C1B74F712040F74EB1209B3EAFEEBFFCF
:10390300851882851983740612392C120C01AA8238
:10391300AB83121310EE2408FCE43FFD740A120C6F
:1039230001124E7874150239C6F0EA2413FCE43F01
:10393300FD74022274F712040F74F71209B3EAFE3E
:10394300EBFFEA2430124B0D605DEA1239B7120C1B
:10395300017403F09004E71207381239AD120738E7
:103963009004FAE0F97404120993EEFAEFFB1224BF
:1039730014740412091BE9F974DC69602374DD69AA
:10398300601E74E469601974F369601474DE69601D
:103993000F74DF69600A74E869600574DB69700796
:1039A300EEFAEFFB1225CA02317BEE242EF582E4F8
:1039B3003FF58322125D89AA18AB191213107408FC
:1039C30022740312091B024C1B74F212040F8A0C9B
:1039D3008B0D750A00750B007508E7A2AFE433F58C
:1039E30009C2AF901ACE80031237B612360E602585
:1039F3001237CA50F3123A4170EEEE2432123BD81A
:103A0300E06870E4780A1208ED1237A812091B90D7
:103A13001AD4E014F0E509A2E092AFEE4F6013EE82
:103A2300FAEFFB12242C79F0EEFAEFFB1225CA759C
:103A33000800A908AA0CAB0D1225CA02361B1235C1
:103A4300A5E064012274F412040F74F71209B3EAB7
:103A5300FEEBFF8A82F583A3E064F37003023AE688
:103A63008A828B83A3E064DF60798A828B83A3E0FD
:103A730064E8606F8A828B83A3E064DB6065122451
:103A83006EE9F5087055EE240E124B0D604D123A97
:103A9300F060487408120C01123AFF1207387508D7
:103AA300FF7509FF78081208ED8E828F83A3A3A305
:103AB300A3A3A3A3A3E0F974041209931224147417
:103AC3000412091BE9F50874F369600F74DF696078
:103AD3000A74E869600574DB69700F8E828F83A3B3
:103AE300E508F0EEFAEFFB12247A023015EE240F0C
:103AF300FAE43FFB79091224B0EA4B227402125311
:103B03007E74FFF0A3123B0C22124ECCA3A32274AB
:103B1300F112040FEAFEEBFF7508008A82F583A316
:103B2300A3A3A3A3A312303340037508E88A828BAF
:103B330083A3A3A3A3A3A3A3A3A3A3E0C39410401A
:103B4300057508E880138A828B83A3A3A3A3A3A389
:103B5300A3A3A3A3E0640F600B901B3BE054087086
:103B6300037508E8EA240B123BD8A3A3A3A3A3A3DA
:103B7300A3A3E0C398500DEA240B124B0D640F600E
:103B8300037508E89004EBE0F47003A3E0F470031A
:103B93007508EC7A237B0012121A8B0BA90B901A6F
:103BA300B5123BE760278E828F83A3A3A982AA83E2
:103BB300890C8A0D750E00780C1208E97C237D00B0
:103BC300901AB5E0FA12494612091B800375081AC8
:103BD300A908025970F582E43FF583E0F88A828BE5
:103BE30083A3A322EAF0A3EBF0EA492274F51204BB
:103BF3000FEAFEEBFF8A82F583A3A3A3A3A3A3A3E8
:103C0300A3E09004D2123C7FE09004EDF0EA240B91
:103C1300124B0D9004CD123C7FA3E0901B5FF0F993
:103C2300120FAA901B5FE0600BEE2404124AFF24DC
:103C330006123C75901B5E12300B60047401800207
:103C43007400901AB71262C31208E97C0B7D007AE4
:103C5300B87B1A12494612091BEE2418F508E43FF3
:103C6300F50978081208E97C0B7D007AC37B1A02F8
:103C73004933FAE43FFB79E1120F92221262ADA3BA
:103C8300A3A3A32274F712040FEAFEEBFF8A82F5C3
:103C930083A3E07003122FC1125E34024C1B74F72E
:103CA30012040FEAFEEBFF901AB5124F8F601090CB
:103CB3001AB51245BC901AB5E4F0A3F01212208E87
:103CC300828F8374081246A01219CA024C1B74F621
:103CD30012040F901B5EE06010901AB7E0700A1296
:103CE3003CEFEA4B6003122504025F2E9004CDE003
:103CF300FB9004EDE0FA9004D2E0F912242622743A
:103D0300F412040F74E71209B3EAFEEBFF750B011B
:103D13008A82F583A3A3A3A3A3A3A3E0A2E250698A
:103D2300EA242BF582E43F125986EA2413FAE43F8E
:103D3300FB122432E970529082FBE0640170057536
:103D43000B008045123DC11208E97C0B7D00741104
:103D530012098B12494612091B12260CE9FA740E3A
:103D63001209838808890978081208ED75083075E7
:103D7300090078081208EDEE125BE1120738125DB4
:103D83007B790112302D12091B85188285198374E2
:103D930010F0125D7B7402120C01AA82AB83121322
:103DA30004EE242B126574740B120C011248107468
:103DB3000D120C01E50B125FED7419023017EE249E
:103DC300081262CB22C082C083901B5FE0600312A3
:103DD300267E024730C082C083901B567494F0A3A2
:103DE300741AF0A37498F0A3741AF0A374A4F0A344
:103DF300741AF0901CBE748BF0A3742CF0901B40CB
:103E03007408F0A37424F0901AD9743EF0A37424B8
:103E1300F0901ADB7444F0A37424F0901B3BE0444D
:103E230002024234C082C083EAFCEBFD7903024FF5
:103E33003BC082C08379080260AEC082C08374FE37
:103E43001209B3901AE174ECF0A37424F0901AE30E
:103E530074E6F0A37424F080077ACE7B1A123E999D
:103E6300901ACE124F8F70F1901AD0124F8F6009B3
:103E73007AD07B1A123E9980EF901ACEE4F0A3F029
:103E8300901AD4F0A3F0A3F0901AEF7428F0A3745F
:103E930025F07402801C1211B4851882851983EAF7
:103EA300F0A3EB123EAD1225FA22F0AA18AB1922A9
:103EB300741112091B02473074F612040FE9FF74E0
:103EC3006329F582E4342FF583E493FEFA7B001231
:103ED300118AEA4B6007EA2E123F0980267A027B99
:103EE3000012118AEA4B601774582FF582E4342FBD
:103EF300F583E4938A828B83F0A3741A1242D27AF5
:103F0300007B00025F2E1247FFE8125EA8A3A3A363
:103F1300A3E4F022E9FC740629F8EAA2E0501EE8C3
:103F230075F00A84E5F0F96014740A28C399F8E976
:103F3300C394054004740A28F8740B28F8ECC3945E
:103F4300134004791480027906E82979002409F8DA
:103F53005001097A0A7B001202BFE8F90208AFC0D8
:103F630082C083901B3BE05402600A1219D0E960BF
:103F730004790180027900024730C082C083901B1C
:103F83003BE054026014901AD4E0700A124F8C6024
:103F930009123FA2500479018002790002473012CE
:103FA3002FE5A2E722C082C0839082F8E0F8901A3E
:103FB300D6E0C398500512118A80047A007B000270
:103FC3004730C082C0831225FA7900024730C0828D
:103FD300C08374FE1209B3851882851983EAF0A39E
:103FE300EB12413BA3A3A3A3A3E0600A14605724ED
:103FF300FE605A0240AB9004D2E0640F60121225B7
:10400300D0E9700C1245B6901ADD12468812288D3D
:104013009004FAE0C0E0851882851983124EAFD070
:10402300E012413B74141258CCFCA3E0FD7AD07B20
:104033001A1211AEA8A8C2AF901AD612415F792006
:104043001225C4023E95124409741580D9124409FD
:10405300A3A3A3A3E060511244091236BDC0E085B7
:104063001882851983E02406F582E43BF583D0E0CA
:104073001258CC2402F8A3E03400F98882F583E0D7
:104083002401FAA3E03400FB88828983EAF0A3EBDE
:104093001258CC1244498518828519836013124142
:1040A3001060051241224048AA18AB191225FA8064
:1040B3009212411060F2124122502112412FFA85CF
:1040C3001882851983A3E0C82406124405F874787E
:1040D3001250C4342FF583E4936A601485188285E3
:1040E3001983124110640870BF12412F640870B81D
:1040F30012412F14124143240AC0E0851882851906
:1041030083124688D0E0124143040240291241142D
:104113002212460BC82406F582E438F583E0228593
:104123001882851983124114C3940A228518828543
:1041330019831233E0A3E02212414DF583888222D2
:1041430012414DC8240612443322F0851882851982
:104153008312460B22A8A8C2AF901AD5E004F0E858
:10416300A2E792AF22C082C083901AE5124F8F60FC
:104173000812441012288D8002790002473074F728
:1041830012040FEAFEEBFFEA1235A674011247BED2
:10419300F8A3E0F9123188124810EA2435124B0DC6
:1041A300C0E0EA2413F582E43FF583D0E0F0EA248B
:1041B30036124B0DC0E0EA2414F582E43FF583D0B8
:1041C300E0F0EA2438124B0DC0E0EA2418F582E44B
:1041D3003FF583D0E0F0EA242FF582E43FF5831224
:1041E3000738125D88EA2431124B0DF91235871214
:1041F300091BE9F5087007EEFAEFFB122504A9087D
:10420300024C1BC082C0831225D0E9600479208050
:10421300027901024730C082C083EA241112422A84
:10422300D2E0800DEA240DF582E43BF583E022F031
:10423300A3F0024730C082C0831242276401701189
:104243001242CC400C8A828B83A3E0F91225CA80E8
:10425300661242BDA2E650128A828B83A3E0F990D4
:104263001ADF12468812288D804D1242276401708E
:104273000D1242CC50088A828B83743080368A8236
:104283008B83A3E0641B8A828B8370047422802453
:10429300A3E0700D124227F874371250C4342F80F4
:1042A3000B124227F874581250C4342FF583E49349
:1042B3008A828B831242D20247301242C122EA24FD
:1042C30010F582E43BF583E0221242C1A2E322F01F
:1042D300901B36E0F91211962274F712040FE9FECF
:1042E300124F8C7003024402EE6014741B6E701A3A
:1042F300E812589839F583E0640570030243DA90B5
:104303001AD8124410A3E40243E174E96E7068E81A
:104313002412F582E439F583E0700B1219D6E960B3
:1043230005124453606179EE120F14901AD71244A8
:104333002A901AD7603A124456901AD7700B124437
:104343002A14F01210CA024402124448C2E712456A
:10435300F1240D124405640370091244231245A786
:10436300D2E2F079ED120F1412443B12288D8078BB
:1043730012441674E9806774E16E703E1219D6E92F
:10438300605512445370509004F4E0C0E01244238B
:104393002412F582E438F583D0E0F09004E3E0C022
:1043A300E0901AD712441F12441FD0E0F09004E3A8
:1043B300E004F079011210B28045741C6E701890FD
:1043C3001AD71245BC901AE712468812288D901A04
:1043D300D7E4F0A3F08028901AD7124416EEF09099
:1043E3001AD71245BC1224F21245D2E0548060035E
:1043F30012609D901AD7E4F0A3F079101225C4023D
:104403004C1B12443322851882851983A3E0F5835C
:1044130088822212441A22124690A322124EDD22CF
:10442300901AD7124EBE22124EBE241212443322C9
:10443300F582E438F583E022901AD71245C0901A2A
:10444300DB12468C22E0F8A3E0C824101244332286
:10445300901AD71245D9E054042274F412040F754C
:104463000A00750B00A2AFE433FEC2AF124F8C609B
:104473000302455012468512288DE94410F8901A1C
:10448300CE800985080A85090B12459A1245AE703C
:10449300030245501236A7586870E8780A1208EDEF
:1044A300AC08AD091237AC12091B901AD7E508F016
:1044B300A3E5091245F11245A7A2E75003024557A8
:1044C300901AD5E014F0EEA2E092AF901AD7E02450
:1044D3000EF8A3E03400F9E8FEE9FF8882F58312C1
:1044E30045BC901AD7124135F91224B6E9901AD275
:1044F300125C2B8E828F83E0548060181244232435
:1045030013124405F9120FCE124423241412440546
:10451300F9120FC21245D2A3E05401605F901AD280
:10452300124F8F60451245E860401245E8F8790064
:10453300901AD21245BC1202C7E8C0E01245C6D099
:10454300E01245F6C3941340117402800FEEA2E00B
:1045530092AF8037901AD40244C67400C0E0901A18
:10456300D8E0C8124591D0E0800D1245C6740112FF
:1045730045F11245917401F07903800C901AD7121A
:104583004448A2E1B3E433F91210B202301A241AF8
:10459300F582E438F58322E50824FBF582E5093446
:1045A300FFF583221258B212443622122FF6E50881
:1045B3004509228518828519831245C022E0FAA392
:1045C300E0FB22124EBB2419F582E438F5832290D6
:1045D3001AD71245D92212460BC81245E1221250AE
:1045E300D238F58322124EBB2418124433221246CA
:1045F30003C822124603F5838882A3A3A3A3E02260
:10460300F0901AD712460B22E0F8A3E02274F712B7
:10461300040FEAFEEBFF1225F4124B0AA2E3400A51
:10462300123A4170059082F680039082F7E0F9EE2A
:10463300FCEFFD7ACE7B1A1211C6E96038EEFAEF71
:10464300FB901AE112468812288DEE240E124B0DB0
:1046530054047012124158EE123189A3E0540170D0
:104663001E1224FE8019EEFAEFFB901AD912468827
:1046730012288D800A8E828F83A374F112469902C9
:104683004C1B901AE312468C2212469022E0F8A3A8
:10469300E0F5838882221246A01224F222F0EEFA79
:1046A300EFFB2202472974F712040FEAFEEBFF79AE
:1046B30000901B3BE05402700CEA2433124B0D5460
:1046C30004600279E8901B3BE05460700CEA2433E9
:1046D300124B0D5402600279E88A828B83A3A3A351
:1046E300A3E0F89082FCE0C398500279E8EA243111
:1046F300124B0D700CEA242E124B0D700479F580C9
:104703000BE970051224E0E9F9E96007EEFAEFFB23
:104713001225CA024C1BC082C0838A828B83740D0C
:10472300F01219CA8007C082C0831224FED083D03E
:10473300820208AF74F412040FEAFEEBFF8A82F5DB
:1047430083E4F0A31247BE54049082F67012E0F89B
:10475300901AD5E0C398401279F11225CA02301A93
:10476300E0F8901AD4E0C39850EE1247C4A3E05483
:10477300016037EA2437124B0DC394054033EA2412
:1047830033124B0D540570297AE97B1A1226FCEE7D
:104793002437F582E43FF583122FCB78081208E51E
:1047A3007AE97B1A1247B812091BEEFA1251B58047
:1047B300AC79E880A51226F0740422F01247C4E015
:1047C30022EA2433F582E43FF5832274F612040FC0
:1047D300E9FE2451FAE43400FB12118AEA4B601516
:1047E300EE8A828B83A3A3A3A3F0EA24511247FF8B
:1047F30012481080047A007B00025F2EF8E43BF934
:104803008A828B83A3A32212657E901BB3E8F0A355
:10481300E9F022024729C082C083901AF27452F051
:10482300A37425F0A37482F0A37425F0A37458F045
:10483300A37425F0A3745EF0A37425F0A3747CF035
:10484300A37425F0A37470F0A37425F0A3746AF025
:10485300A37425F0A37488F0A37425F0A3748EF0D9
:10486300A37425F0A37494F0A37425F0A374A0F0AB
:10487300A37425F0A37464F0A37425F0A3744CF01F
:10488300A37425F0A37446F0A37425F0901B0E7453
:1048930076F0A37425F0A3749AF0A37425F0A3749F
:1048A300B4F0A37426F0A374A6F0A37425F0A37444
:1048B300ACF0A37425F0901B32E4F0901B35F0901C
:1048C3001B1E1248D67402F0901B271248D674019F
:1048D30002423474C4F0A37425F0A32274F51204C5
:1048E3000F74F11209B38518828519837402F07469
:1048F30001120C01E9F060047AFF7BFF7402120CD1
:104903000112537375082A75091B750A007808127A
:1049130008E97C0B7D007407120C01AA82AB831299
:10492300494612091BAA18AB191219CA740F80033E
:1049330012494612091B7F0302066B7C0B7D007A2A
:104943002A7B1B12115A74032274F712040F74FD8D
:104953001209B3851882851983740AF07401120C45
:1049630001E9F07402120C01EA125FED0239C4741A
:10497300F612040F74F71209B3EAFEEBFFEA1249C9
:10498300C41249F47402F0EA2428FCE43FFDAA1897
:10499300AB19121304EE24311249CA24331259EC11
:1049A3001208ED740212099379831A1A12358512CB
:1049B300091BE9F5087007EEFAEFFB122504025F05
:1049C3002712318D740122F582E43FF583122FF60D
:1049D300124E94F5831249E2E8F0A3E9F0EE2212B5
:1049E30049EA8A828B8322E024FFF8A3E034FFF9AB
:1049F30022F0A3E4F0EA1235A62274F012040F1297
:104A0300645C120BAA7808790C1203207808120848
:104A1300E57A217B1B022FFE74F412040F74C61275
:104A230009B39004D2E0640F600D85188285198361
:104A3300742E12539280227A187B1B12303C12027E
:104A4300C788088909E4F50AF50B78081208E57A9E
:104A5300187B1B1247B812091B743A02301774F5FE
:104A630012040FEAFEEBFF8A82F583A3E0F8707865
:104A7300EA2430124B0D64026007E064036002789D
:104A8300E8EA2426F582E43FF583123035400478C2
:104A9300E88058E87052EA2426123C75EE2431125D
:104AA3004AFF2430124B0D6402700EEE2428126567
:104AB300749004E112481080179004E174FEF0A38F
:104AC30004F0EE2428FCE43FFD7AD87B0412131093
:104AD300EE241B123DC41208E912493E12091BEED3
:104AE300FAEFFB122540E9F8E8600EE88E828F8327
:104AF300A3125D907417125E3A024939FAE43FFB40
:104B03007950120F92EE22EE2410F582E43FF583E2
:104B1300E02274F612040F74F71209B3901B35E008
:104B230070377401F0F912107CAA18AB191226061B
:104B330075082A75091B78081208ED7508017509AF
:104B43000078081208ED9004E7120738740612097A
:104B5300937A0312302B12091B025F2974F7120494
:104B63000F124D3B7004A374EBF0901B35E0A2E2EF
:104B73005003C2E2F0E0A2E15005124D4C80098ED1
:104B8300828F83742A125E3A024C1B74F412040F50
:104B930074FE1209B3124C41124E87EC85188285BC
:104BA3001983124ED6E0F50B7015AA18AB19795379
:104BB300120F92EE2413FAE43FFB794A120F92127A
:104BC3003DC11208E912493E12091B1245B6A90B51
:104BD300122534901B35E0A2E15003124D53901B74
:104BE30035E4F0740202301774F712040FEAFEEB97
:104BF300FF8A82F583A374EBF0901B35E0A2E150AA
:104C0300077A0079EB12253AEEFAEFFB1225708052
:104C130007EEFAEFFB1226727F0102066B74F7129E
:104C2300040F124C41901B32E4F0901B35F07AFFD5
:104C33007BFF8E828F83A3E0F912253480DA124D35
:104C43008C7A217B1B1226FC2274F712040FEAFED6
:104C5300EBFF12256A80BA74F712040F124DC9A331
:104C6300A3A3E060047400800274EB124C9A500317
:104C7300C2E2F0E0A2E15005124D9D8011A2E05086
:104C83000D8E828F83742AF0A374EB125E3AEEFAD0
:104C9300EFFB12251680818E828F83A3F0901B3544
:104CA300E0A2E22274F612040FEAFEEBFF901B353A
:104CB300E0D2E1F0790112107C8E828F83A3E07041
:104CC3003812260CE9FAEE240DF508E43FF50978CD
:104CD300081208ED75080175090078081208ED122D
:104CE3004D0D120738EE2402FCE43FFD12302B1267
:104CF300091BE98E828F83A3F08E828F83A3E060EA
:104D0300067A00F912253A025F2EEE240BF582E4AF
:104D13003FF5832274F712040F124D3B7004A37402
:104D2300EBF0901B35E0A2E25003C2E2F0E0A2E117
:104D33005003124D4C024C1BEAFEEBFF790112109B
:104D4300828E828F83E0642022C2E1F0124D5322CF
:104D53007A008E828F83A3E0F912253A2274F71228
:104D6300040F124D8C8E828F83A3A3A3A3E0600450
:104D73007400800274EB124C9A5003C2E2F0E0A27A
:104D8300E15003124D9D024C91EAFEEBFF790112B3
:104D930010827A187B1B1226FC22C2E11262BEE04B
:104DA300A2E4E433FA124D552274F712040F124DA4
:104DB300C974EB124C9F5003C2E2F0E0A2E150032E
:104DC300124D4C024C1BEAFEEBFF79011210828E4E
:104DD300828F83A32274F712040F124DEE024C1438
:104DE30074F712040F124DEE024C1BEAFEEBFF7A2E
:104DF300187B1B1226FCEEFAEFFB1225942274F7A4
:104E030012040F74EF1209B3EAFEEBFFEA125D7CA2
:104E13007AD87B041212FEE96056851882851983BD
:104E23007409F07401120C0174EFF0124E877402CE
:104E3300120C01EC124ED6A3A3E0C0E07404120CD2
:104E430001D0E0124EC3640870158E828F83A3A332
:104E5300124EAFE0C0E07405120C01D0E08006747E
:104E630005120C01E4125C187406120C01124E7840
:104E730074110239C6AA82AB8312263CAA18AB1955
:104E83001219CA22124E94F583124EA6FCA3E0F91E
:104E930022EE124E9CFB8882222402F8E43FF9E8BA
:104EA300FAE92212460B8882F583E022124EBE24D1
:104EB30007F582E438F58322901AD712460BC822ED
:104EC300124EC722124ECCE022F08E828F83A3A310
:104ED300A3A322125EA8124EDD22124EE122E0F8B5
:104EE300A3E0F5838882A3A322C082C08312267E17
:104EF300024730C082C083901B5274F2F0A3741A2D
:104F0300F0A3740EF0A3741BF0901CB874C7F0A345
:104F1300742BF0A37465F0A3742BF0901B3E742ED6
:104F2300F0A37425F0901B3BE04401024234C0829D
:104F3300C083EAFCEBFD79021225E202473074F6E6
:104F430012040F74FE1209B3901B37124F8F6007C0
:104F53007A377B1B1225FA901B3DE4F09017BF12A2
:104F63004F8F60208007AA18AB191225FA901B36C1
:104F7300E0F91211A28B09A90985188285198312F8
:104F83003BE770E27402025F2B901AD712657EE84A
:104F9300492274F712040FE9FA7B00901B36E0F9FB
:104FA3001211CC024C1B74F712040F74F01209B3E4
:104FB300EAFCEBFDE9FE8A828B83E0F8746E125003
:104FC300C4342FF583E493C0E07401120C01D0E0E4
:104FD300F0640B700DE98A828B83A3F012266002C2
:104FE30050BFE070030250BF640C60030250B07402
:104FF3001A6E700B7404120C01E4F0A30250AF7428
:1050030004120C01125373EA243212587CC0E07468
:1050130003120C01D0E01262A9120BD27406120C17
:1050230001120BC68C828D83A3A3A3A3A3A3A3A363
:10503300A312657A740A120C01E8F0A3E91250C9AD
:10504300E054106009851882851983E48013EC24E9
:105053001212587CF89004F4E0C3988518828519DD
:1050630083F0E0C0E0740C120C01D0E0F0EC2415E6
:1050730012587CC0E0740D120C01D0E0F0EC241641
:1050830012587CC0E0740E120C01D0E0F0EC24172F
:1050930012587CC0E0740F120C01D0E01250C9A367
:1050A300E0540160087401120C017411F0740212CF
:1050B3000C01EEF0740112098B1219CA7410023933
:1050C300C628F582E422F0EC1250D23DF583222467
:1050D3000EF582E422C082C083901B3DE06403701E
:1050E3000479018002790002473074F712040F90AB
:1050F3001B3DE012516874B628F582741C39F583A0
:105103001255FAC2E7F012516FA3E493FE25E0FCB7
:10511300E433FD74B62CF582741C3D125986EC4DB4
:105123006005EE901B3DF08A828B83E025E0FCE472
:1051330033FDE82CF582E93DF583E493FCC4540F79
:1051430025E0F8744C1250C4341BF583124F8F7052
:105153000512264E800CEC540F12516F1246881222
:10516300288D024C1B25E0F8E433F92225E0FCE806
:105173002CF582E439F5832274F212040F74FE12C3
:1051830009B3890B8A088B0912521A12520B601A3F
:10519300125C25F50A78081208E912522724021234
:1051A300597C12091B1251B380031252390236166D
:1051B300AA0CEFFB901B36E0F91211962274F01241
:1051C300040F74FE1209B3890B8A0E8B0F12521A45
:1051D300F50812520B6027125C25A808EA28123F33
:1051E30009850E08850F09F50A78081208E9125295
:1051F3002712597A12091B1251B3790080051252F2
:1052030039791A7402023003FA7B0012118A8A0C6C
:105213008B0DAF0DEA4F22744229F582E4342FF54A
:1052230083E49322A80B744D1250C4342FF583E406
:1052330093FC7D00EA22851882851983E50BF079BA
:105243001AAA18AB191225CA22C082C083E9901B7F
:105253003602423474F612040F74FE1209B3EAFEE6
:10526300EBFFEA542070308039A8A8C2AF901AD659
:10527300E0141241618A828B83125360901B3912AE
:1052830053731225D6851882851983E06415600748
:105293007A397B1B1225FA7AD07B1A1211B4EA4BA6
:1052A30070C7EF5480700C8016901B39EAF0A3EBA3
:1052B300125386901B36E0F91211A2EA4B70EAEE04
:1052C3005410600B851882851983742D125392EE46
:1052D300A2E0500B8518828519837424125392EE31
:1052E3005402600B8518828519837425125392EE3C
:1052F3005404600B8518828519837426125392EE29
:105303005408600B8518828519837428125392EE12
:105313005440600D7401120C01125379742C125312
:1053230092EE5480600D7401120C01125379742FA4
:10533300125392901B37124F8F601BA8A8C2AF90D5
:105343001B371245BC901B37E4F0A3124161A3EA5B
:10535300F0A3E91253867A007B00024F871253644D
:1053630022E0851882851983F022A3A3A3A3A3A314
:10537300EAF0A3EBF022E412537E22F08518828533
:10538300198322F01225D67A397B1B1225FA2212B1
:105393003EAD1225D622C082C083901B39125FE82E
:1053A300687002EB697007901B39E4F0A3F00247C1
:1053B3003074F712040FEAFEEBFFEA4F7003120D8D
:1053C30070A2AFE433F508C2AF8E828F83124F8F82
:1053D3006028E824FBFAE934FFFB901B3912598853
:1053E300E86C7002E96D7007901B39E4F0A3F08E4E
:1053F300828F83E4F0A3F0121220023832C082C0FD
:1054030083901B607442F0A37426F0A37454F0A33A
:105413007426F0A3745AF0A37426F0A37410F0A3B7
:105423007425F0A37460F0A37426F0A3740AF0A3A8
:105433007425F0A37416F0A37425F0901B6E74907A
:10544300F0A37426F0A37466F0A37426F0A3746C1F
:10545300F0A37426F0A37478F0A37426F0A37472F7
:10546300F0A37426F0901B5FE4024234C082C08331
:105473009004E1E064FE7003A3E0F470097CD87D3E
:1054830004121304801C8A828B83A3A3A3A3A3A364
:10549300A3A37402F09004E112657A8A828B8312CB
:1054A3004810024730C082C0839004EBC3E094FEEF
:1054B300A3E094FF4004790380027902024730C0DD
:1054C30082C0831256038C828D831255B86870395B
:1054D300740268701C8A828B83125511E0687029EC
:1054E3008A828B83A3125511A3E068701C79018013
:1054F3001A7403687013EC2405FC50010DEA2405AB
:10550300FA50010B12130A80027900024730A3A359
:10551300A3A3A3E0F88C828D83A3A3A3A3A32274E4
:10552300F612040F7E00740A120C01E01255ACFF50
:105533008A828B83A3A3A3A3A3A3A3A3E06F706413
:1055430074026F704E8A828B83C082C08388828983
:1055530083A3A3A3A3A3E0F50888828983A3A3A3BA
:10556300A3A3A3E0FBAA08D083D082E06A7003A3BD
:10557300E06B703088828983A3A3A3E0FA888289D1
:1055830083A3A3A3A3E0F9EA6C7002E96D70157E0F
:1055930001801174036F700CE82405FCE439FD12DB
:1055A300130AE9FEEEF9025F2EF8A3E0F98882F50B
:1055B300831255B822A3E01313543F540322C0822D
:1055C300C0838A828B83A3A3A3A3A3A3A3A3E0641F
:1055D3000270169004E11255FA687003A3E0697033
:1055E300047901800F7900800BEAFCEBFD7AD87B0C
:1055F300041212FE02473012657E8A828B83E022F8
:105603008A828B831255B8F82274F012040F74FC4B
:105613001209B3E9851882851983F07402120C010B
:10562300ECF0A3EDF08A0A8B0B7508007402120CE0
:1056330001E0240812587CC0E07401120C01D0E090
:105643001258CCA2E75008750EFF750FFF800A9021
:1056530004E7E0F50EA3E0F50F851882851983E0D2
:10566300C2E71258D15420600712589E7408800470
:1056730012589EE41258D1540460071258A974803A
:1056830080051258A974101258D15410600612588C
:1056930084E4800B9004F4E0C0E0125884D0E0125C
:1056A30058D1A2E0500375082054086006741045D1
:1056B30008F5088A828B83A3A3E024FFFEA3E034CA
:1056C300FFFFEA12588FC39402E0400F640B600996
:1056D300E0148E828F831258C274034508F508754F
:1056E3000900900507E0640170118A828B83A3A3EC
:1056F300A3A3E0C394674003750910851882851935
:1057030083E0F50C750D00740E780C120ADFE50DBD
:105713004509F509E06402701B9004ECE08E828F6A
:1057230083F09004EBE0C0E012358DD0E0F0EE247E
:10573300FEFE801CE06403701DEE24F9FEEF34FFCF
:10574300FF7CFB7D04EEFAEFFB121310EE24FF1E29
:10575300EF34FFFF8003E0602F7401120C01E0605F
:10576300187414120C01E0650E7004A3E0650F7049
:105773000874404508F508800F8E828F83E50FF08B
:1057830012358DE50E1258B87401120C01E0F50CB8
:10579300750D00740A780C120ADFE50D4509F50949
:1057A300E0640270237402120C01125FE38E828F95
:1057B30083F07402120C011236BFC0E012358DD093
:1057C300E0F0EE24FEFE8020E064037021EE24F975
:1057D300FEEF34FFFF7402120C01125988EEFAEF48
:1057E300FB121310EE24FF1EEF34FFFF8003E06073
:1057F3001C7414120C01A3E08E828F83F0741412B4
:105803000C01E0C0E012358DD0E01258B8EEF8EF8D
:10581300F9E824FF1EE934FFFFE50A12588F7005EB
:105823009004D780039004E3E0FA04F0EA888289C5
:1058330083125D90E5091258C28E82F583E508F064
:10584300E50A2404F8E4350BF9E50A2402FAE43501
:105853000BFBEEFC8A828B83E0F50888828983E068
:105863002508C39C125EABEEF0A3EFF0850A828598
:105873000B83A3E4F0F9023001F582E43DF583E004
:1058830022EA2412F582E4350BF583221258983567
:105893000BF583E022240DF582E422EA2410F5823D
:1058A300E4350BF58322EA1258B2350BF583222433
:1058B30011F582E422F0EE24FEFEEF34FFFF22F026
:1058C300EE24FF1EEF34FFFF2212537EE022F0EAA4
:1058D3001250D2350BF583E02274F112040F74FEDB
:1058E3001209B3851882851983ECF0A3EDF0890BB7
:1058F3008A0E750A1A7415120C0112680D1224B05F
:105903008A0C8B0DAE0CAF0DEA4F605A7413120C58
:1059130001125FE81259E7F0A3E91249F7E50BF02A
:10592300750A0078081208E97C0B7D00EA12597A9F
:1059330012091B7411120C011207387402120C01A4
:10594300125988A90E12358312091BE9F50A70163C
:10595300E50B24F960031470061237C5D2E5F0EEA7
:10596300FAEFFB122504A90A740212091B7F07022E
:10597300066B7C0B7D00EE241BFAE43FFB12115AED
:10598300740322F583E0FCA3E0FD2274F612040FF6
:1059930074F71209B3EAFEEBFF7801EA2432124BE3
:1059A3000D60027805EA1259E71249F47404125D96
:1059B30083AA18AB19121304EE242F1249CA2431F7
:1059C3001259EC1208ED740212099379031A1A1290
:1059D300358512091BE9F5087007EEFAEFFB12256E
:1059E30004025F2712318DE822F582E43F123180F1
:1059F300124EC704F078082274F212040F8A088B3F
:105A030009ECFEEDFF8A828B837405F0EC125E1CB9
:105A1300126170F0EA2403F50AE43509F50B850AEF
:105A230082F583E0F50CA3E0F50DEC2425F582E483
:105A33003FF583120BD2E50C1258B2350DF58312E4
:105A43000BC6EC125D7CAA0CAB0D121304850A8203
:105A5300850B8312688D125BE1125C0412536DEEA9
:105A6300242F124B0DC0E0125BEAD0E0125C30240D
:105A730015F582E438F583E4125C301245E1E41253
:105A83005C18850A82850B83E02416FAA3E03400B0
:105A9300FB12263C8E828F83A3A3A3A3A3A3A3E01D
:105AA300C0E0850A82850B8312442612589838F584
:105AB30083D0E0125C0FFAA3E0FB850A82850B8397
:105AC30012657AE8240BFCE439FD8A828B83E08C2F
:105AD300828D83125C2B8A828B83A3E0F50B8C82ED
:105AE3008D83A3E0450B125EA3A3E0FCEA2403FA33
:105AF30050010BECA2E7E433C0E0E8240FF582E4A5
:105B030039F583D0E0F074075C6004780180027893
:105B13000075F00374075CA428F8EA28FAE43BFB59
:105B2300E5082405F8E43509F98A828B831231826A
:105B3300125EA3AA82AB8385088285098312536D03
